:0200000460009A
:10000000464346420004015600000000000303007E
:1000100000001000000000000000000000000000D0
:1000200000000000000000000000000000000000D0
:1000300000000000000000000000000000000000C0
:1000400000000000010407000000000000000000A4
:100050000000800000000000000000000000000020
:100060000000000000000000000000000000000090
:10007000000000000000000010001000000001005F
:100080006B0418080832042600000000000000007D
:10009000A50404240000000000000000000000008F
:1000A0000104042000000000000000000000000027
:1000B0000604000000000000000000000000000036
:1000C000AB04183004240000000000000000000011
:1000D000D704180800000000000000000000000025
:1000E0000000000000000000000000000000000010
:1000F0000000000000000000000000000000000000
:100100005204180800000000000000000000000079
:100110000204180804200000000000000000000095
:1001200000000000000000000000000000000000CF
:10013000C7040000000000000000000000000000F4
:1001400000000000000000000000000000000000AF
:10015000000000000000000000000000000000009F
:10016000000000000000000000000000000000008F
:10017000000000000000000000000000000000007F
:10018000000000000000000000000000000000006F
:10019000000000000000000000000000000000005F
:1001A000000000000000000000000000000000004F
:1001B000000000000000000000000000000000003F
:1001C000000100000010000001000000000000001D
:1001D000000000000000000000000000000000001F
:1001E000000000000000000000000000000000000F
:1001F00000000000000000000000000000000000FF
:0200000460009A
:10100000D10020410020006000000000301000608E
:1010100020100060001000600000000000000000D0
:10102000000000600000800000000000FFFFFFFFE4
:10103000D2043041CC03AC04400FC068FFFFFFFF77
:10104000400FC06CFFFFFFFF400FC070FFFFFFFFAE
:10105000400FC074FFFFFFFF400FC078FFFFFFFF8E
:10106000400FC07CFFFFFFFF400FC080FFFFFFFF6E
:10107000400D803000002001400D8100001D000067
:10108000400FC01400010D40401F801400000000FC
:10109000401F801800000000401F801C000000005E
:1010A000401F802000000000401F8024000000003E
:1010B000401F802800000000401F802C000000001E
:1010C000401F803000000000401F803400000000FE
:1010D000401F803800000000401F803C00000000DE
:1010E000401F804000000000401F804400000000BE
:1010F000401F804800000000401F804C000000009E
:10110000401F805000000000401F8054000000007D
:10111000401F805800000000401F805C000000005D
:10112000401F806000000000401F8064000000003D
:10113000401F806800000000401F806C000000001D
:10114000401F807000000000401F807400000000FD
:10115000401F807800000000401F807C00000000DD
:10116000401F808000000000401F808400000000BD
:10117000401F808800000000401F808C000000009D
:10118000401F809000000000401F8094000000007D
:10119000401F809800000000401F809C000000005D
:1011A000401F80A000000000401F80A4000000003D
:1011B000401F80A800000000401F80AC000000001D
:1011C000401F80B000000010401F80B400000000ED
:1011D000401F80B800000000401F8204000110F989
:1011E000401F8208000110F9401F820C000110F915
:1011F000401F8210000110F9401F8214000110F9F5
:10120000401F8218000110F9401F821C000110F9D4
:10121000401F8220000110F9401F8224000110F9B4
:10122000401F8228000110F9401F822C000110F994
:10123000401F8230000110F9401F8234000110F974
:10124000401F8238000110F9401F823C000110F954
:10125000401F8240000110F9401F8244000110F934
:10126000401F8248000110F9401F824C000110F914
:10127000401F8250000110F9401F8254000110F9F4
:10128000401F8258000110F9401F825C000110F9D4
:10129000401F8260000110F9401F8264000110F9B4
:1012A000401F8268000110F9401F826C000110F994
:1012B000401F8270000110F9401F8274000110F974
:1012C000401F8278000110F9401F827C000110F954
:1012D000401F8280000110F9401F8284000110F934
:1012E000401F8288000110F9401F828C000110F914
:1012F000401F8290000110F9401F8294000110F9F4
:10130000401F8298000110F9401F829C000110F9D3
:10131000401F82A0000110F9401F82A4000110F9B3
:10132000401F82A8000110F9402F000010000004A7
:10133000402F000800030524402F000C060305245D
:10134000402F00108000001B402F00148200001B63
:10135000402F00188400001B402F001C8600001B3B
:10136000402F002090000021402F0024A0000019F1
:10137000402F0028A8000017402F002CA900001BB8
:10138000402F003000000021402F0004000079A809
:10139000402F004000000F31402F004400652922FB
:1013A000402F004800010920402F004C50210A081E
:1013B000402F008000000021402F00840088888892
:1013C000402F009400000002402F00980000000011
:1013D000402F009080000000402F009CA55A000F75
:1013E000CF000C1C402F003C00000001CC00140476
:1013F000402F009080000000402F009CA55A000C58
:10140000CF000C1C402F003C00000001CC00140455
:10141000402F009080000000402F009CA55A000C37
:10142000CF000C1C402F003C00000001CC001C042D
:10143000402F00A000000033402F009080000000EB
:10144000402F009CA55A000ACF000C1C402F003CE6
:1014500000000001CC000C04402F004C50210A0970
:0200000460009A
:1020000000000220152400602D2400602F240060B1
:10201000312400603324006035240060000000009B
:1020200000000000000000000000000037240060F5
:1020300039240060000000003B2400603D24006063
:102040003F24006043240060472400604B2400606C
:102050004F24006053240060572400605B2400601C
:102060005F24006063240060672400606B240060CC
:102070006F24006073240060772400607B2400607C
:102080007F240060FB240060FB240060FB240060D0
:1020900083240060872400608B2400608F2400600C
:1020A00093240060972400609B2400609F240060BC
:1020B000A3240060A7240060AB240060AF2400606C
:1020C000B3240060B7240060BB240060BF2400601C
:1020D000C3240060C7240060FB240060FB24006070
:1020E000FB240060FB240060FB240060FB240060F4
:1020F000FB240060FB240060FB240060FB240060E4
:10210000FB240060FB240060FB240060FB240060D3
:10211000FB240060FB240060FB240060FB240060C3
:10212000CB240060CF240060D3240060D72400605B
:10213000DB240060FB240060FB240060FB240060C3
:10214000FB240060FB240060FB240060FB24006093
:10215000FB240060FB240060FB240060FB24006083
:10216000FB240060FB240060FB240060FB24006073
:10217000FB240060FB240060FB240060FB24006063
:10218000FB240060FB240060FB240060FB24006053
:10219000FB240060FB240060FB240060FB24006043
:1021A000FB240060FB240060DF240060E324006067
:1021B000FB240060FB240060FB240060FB24006023
:1021C000FB240060FB240060FB240060FB24006013
:1021D000FB240060FB240060FB240060FB24006003
:1021E000FB240060FB240060FB240060FB240060F3
:1021F000E7240060FB240060EB240060EF24006013
:10220000FB240060FB240060F3240060F7240060DE
:10221000FB240060FB240060FB240060FB240060C2
:10222000FB240060FB240060FB240060FB240060B2
:10223000FB240060FB240060FB240060FB240060A2
:10224000FB240060FB240060FB240060FB24006092
:10225000FB240060FB240060FB240060FB24006082
:10226000FB240060FB240060FB240060FB24006072
:10227000FB240060FB240060FB240060FB24006062
:10228000FB240060FB240060FB240060FB24006052
:10229000FB240060FB240060FB240060FB24006042
:1022A000FB240060FB240060FB240060FB24006032
:1022B000FB240060FB240060FB240060FB24006022
:1022C000FB240060FB240060FB240060FB24006012
:1022D000FB240060FB240060FB240060FB24006002
:1022E000FB240060FB240060FB240060FB240060F2
:1022F000FB240060FB240060FB240060FB240060E2
:10230000FB240060FB240060FB240060FB240060D1
:10231000FB240060FB240060FB240060FB240060C1
:10232000FB240060FB240060FB240060FB240060B1
:10233000FB240060FB240060FB240060FB240060A1
:10234000FB240060FB240060FB240060FB24006091
:10235000FB240060FB240060FB240060FB24006081
:10236000FB240060FB240060FB240060FB24006071
:10237000FB240060FB240060FB240060FB24006061
:10238000FB240060FB240060FB240060FB24006051
:10239000FB240060FB240060FB240060FB24006041
:1023A000FB240060FB240060FB240060FB24006031
:1023B000FB240060FB240060FB240060FB24006021
:1023C000FB240060FB240060FB240060FB24006011
:1023D000FB240060FB240060FB240060FB24006001
:1023E000FB240060FB240060FB240060FB240060F1
:1023F000FB240060FB240060FB240060FFFFFFFF64
:10240000DFF80CD000F04EF9004800473546006078
:102410000000022072B63A483A4901600A6882F325
:1024200008883948804762B638480047FEE7FEE72B
:10243000FEE7FEE7FEE7FEE7FEE7FEE7FEE73448DD
:102440000047344800473448004734480047344880
:102450000047344800473448004734480047344870
:102460000047344800473448004734480047344860
:102470000047344800473448004734480047344850
:102480000047344800473448004734480047344840
:102490000047344800473448004734480047344830
:1024A0000047344800473448004734480047344820
:1024B0000047344800473448004734480047344810
:1024C0000047344800473448004734480047344800
:1024D00000473448004734480047344800473448F0
:1024E00000473448004734480047344800473448E0
:1024F000004734480047344800473448004700004C
:1025000008ED00E0002000607D44006001240060D0
:10251000FB240060FB240060FB240060FB240060BF
:10252000FB240060FB240060FB240060FB240060AF
:10253000FB240060FB240060FB240060FB2400609F
:10254000FB240060FB240060FB240060FB2400608F
:10255000FB240060B1380060CD380060E9380060CD
:1025600005390060213900603D390060593900604B
:1025700075390060FB240060FB240060FB240060D0
:10258000FB240060FB240060FB240060FB2400604F
:10259000FB240060FB240060FB240060FB2400603F
:1025A000FB240060FB240060FB240060FB2400602F
:1025B000FB240060FB240060FB240060FB2400601F
:1025C000FB240060FB240060FB240060FB2400600F
:1025D0002DE9F05F0546002092469B468846064658
:1025E000814640241BE0284641464746224600F0EB
:1025F00048F853465A46C01A914110D3114618461E
:10260000224600F02FF82D1A67EB01084F462246AC
:102610000120002100F026F817EB00094E41201E92
:10262000A4F10104DFDC484631462A464346BDE8B2
:10263000F09FD2B201E000F8012B491EFBD2704797
:102640000022F6E710B513460A4604461946FFF77E
:10265000F0FF204610BD421C10F8011B0029FBD1E1
:10266000801A7047202A04DB203A00FA02F1002089
:1026700070479140C2F1200320FA03F319439040C0
:102680007047202A04DB203A21FA02F0002170472B
:1026900021FA02F3D040C2F12002914008431946CA
:1026A00070470000064C074D06E0E06840F001036B
:1026B00094E8070098471034AC42F6D3FFF7A4FE25
:1026C0003C4700605C47006010B54FF400409449FF
:1026D000086000BF93489449086000BF01219348F7
:1026E00000F0C0FD0121924800F0BCFD9148C06897
:1026F00020F01F0040F012008E49C86000BF8D48D6
:10270000006800F00040B0F1004FF8D18A4800F0B6
:10271000F3FC8A4800F01CFD8948006F40F400502B
:10272000874908678648A030006840F40050C1F827
:10273000A0000846D0F8E00040F40050C1F8E000E6
:102740000846D0F8E00040F40010C1F8E000002195
:102750007C4800F029FD0021744800F083FD002131
:10276000734800F07FFD0021774800F01DFD032134
:10277000764800F019FD0121754800F015FD032190
:10278000744800F06FFD0121734800F00DFD002139
:10279000724800F067FD0121714800F005FD00213D
:1027A000704800F05FFD01216F4800F0FDFC002142
:1027B0006E4800F057FD07214FF2140000F0F4FCC2
:1027C00000216648F83000F04DFD002163480838CC
:1027D00000F048FD01216248183000F0E5FC0021BE
:1027E000634800F03FFD04215648FC3800F0DCFC53
:1027F0000221604800F036FD02215F4800F0D4FC61
:1028000002215E4800F02EFD03215D4800F0CCFC63
:10281000012151480C3000F0C7FC00215448E03041
:1028200000F020FD03215648001D00F0BDFC0121F1
:102830004948103000F0B8FC00213C48001D00F071
:1028400011FD03214F4800F0AFFC01214E4800F07C
:10285000ABFC00214948001D00F004FD00214B485D
:1028600000F0A2FC00214A4800F0FCFC012149488C
:1028700000F09AFC022135480C3000F0F3FC0021F6
:102880003548083000F090FC00213448083000F052
:10289000E9FC0121404800F087FC03213948F03071
:1028A00000F082FC05213048EC3800F0DBFC01210F
:1028B0003A4800F079FC07213248083000F074FCF7
:1028C0000321374800F0CEFC01213348083800F0DE
:1028D0006BFC0721334800F067FC03211B48E438F8
:1028E00000F0C0FC01212F48083800F05DFC0721F2
:1028F0002A48083800F058FC03212B4800F0B2FCAD
:1029000000212A4800F0AEFC0D48D0F8600120F00C
:102910001F002749086027482749086010BD0000AC
:102920004800002000366E0144000020186C008032
:102930001439001400000840A0460060A84600605A
:1029400000800D4014FB008014EA0004146800802D
:1029500010E00040187200801CE007801C260080F8
:1029600024EB00801C30008024F000801C310080AB
:102970003C6900801864008024790080186E008013
:1029800028E6008028F6008028F0078038F30780CA
:102990003832008020E2078038EC008030F9008077
:1029A0003074008030E90080207300800C200080AB
:1029B00060810D400046C3235000002010B56148DF
:1029C000006800F40030B0F5003F2BD100BF00BF1D
:1029D00000BF00BF00BFBFF34F8F00BF00BF00BFED
:1029E00000BF00BF00BFBFF36F8F00BF00BF00BFBD
:1029F0005448006820F400305249086000205249D1
:102A0000086000BF00BF00BFBFF34F8F00BF00BF13
:102A100000BF00BF00BF00BFBFF36F8F00BF00BF8C
:102A200000BF00BF4748006800F48030B0F5803F29
:102A300001D101F0A3FA00BF00BF00BF00BF00BF7B
:102A4000BFF34F8F00BF00BF00BF00BF00BF00BF7C
:102A5000BFF36F8F00BF00BF00BF3A48103000685F
:102A600020F48030374910310860364880300068E3
:102A700020F0010033498031086000BF33483149FC
:102A8000883108603248091D08603248091F086013
:102A90002F48801C091D08602F48091F08602F4817
:102AA000091D08601320091F08602948801C091DA2
:102AB00008601420091F086028481838091D08609C
:102AC0002748091F086025481838091D086025484F
:102AD000091F086021481638091D08601D48801D1F
:102AE000091F08601D480838091D08601E48091F95
:102AF00008601E48091D0860042000BF00BF00BF19
:102B000000BFBFF34F8F00BF00BF00BF00BF00BFBB
:102B100000BFBFF36F8F00BF00BF00BF40F00101D7
:102B2000084A8032116007491031096841F4803148
:102B3000044A1032116000BF01F070FA01F00AFB84
:102B400010BD000014ED00E050EF00E0100000C0E8
:102B500039001003110000801200006039000303E7
:102B600015000020160020201800E081290008032D
:102B700070B51648C1B2164A8958C0F34C32C0F33A
:102B800004239A401140C0F30422D14061B9114896
:102B900000F09CF90621B0FBF1F50F4800F076F942
:102BA000401CB5FBF0F40FE000BF0C48006800F0DB
:102BB000100008B10A4D01E00A480568064800F017
:102BC00065F9401CB5FBF0F4204670BD242600805A
:102BD00000C00F400D00100024E0078070820D40FF
:102BE00000366E014400002010B5FFF7C1FF044617
:102BF000234602224FF4E131014800F0E5FB10BD0D
:102C0000004018401CB540F2024000F073F800206C
:102C1000164903460246CDE900100221144800F08F
:102C20005BFD00201149091D03460246CDE9001055
:102C300002210F48001D00F04FFD41F2B0000B498A
:102C400000231A46CDE900100221094800F03EFD9C
:102C500041F2B0000549091D00231A46CDE90010D4
:102C600002210348001D00F031FD1CBDDC821F4025
:102C7000EC801F402DE9F04104460E46270A04F07F
:102C80001F08062F00D805E040F2D73208A115A092
:102C900001F05CFC164800EB87052868032101FA67
:102CA00008F1884306FA08F108432860BDE8F0817E
:102CB0002E2E5C2E2E5C315F6C69625C64657669D9
:102CC0006365735C4D494D585254313035325C6404
:102CD0007269766572735C66736C5F636C6F636B4D
:102CE0002E680000696E646578203C3D2036000047
:102CF00068C00F402DE9F0470446254603274FEAF8
:102D0000152805F01F09B8F1060F00D805E040F2BC
:102D1000D73209A115A001F019FC174800EB88066D
:102D20003068032101FA09F1884307FA09F10843E1
:102D3000306000BFBDE8F0872E2E5C2E2E5C315F28
:102D40006C69625C646576696365735C4D494D5876
:102D50005254313035325C647269766572735C66E8
:102D6000736C5F636C6F636B2E680000696E6465E3
:102D700078203C3D2036000068C00F402DE9F04728
:102D80000446254603274FEA152805F01F09B8F128
:102D9000060F00D805E040F2D73209A115A001F0D6
:102DA000D5FB174800EB88063068032101FA09F1CA
:102DB000884307FA09F10843306000BFBDE8F08797
:102DC0002E2E5C2E2E5C315F6C69625C64657669C8
:102DD0006365735C4D494D585254313035325C64F3
:102DE0007269766572735C66736C5F636C6F636B3C
:102DF0002E680000696E646578203C3D2036000036
:102E000068C00F402DE9F0470446254603274FEAE6
:102E1000152805F01F09B8F1060F00D805E040F2AB
:102E2000D73209A115A001F091FB174800EB8806E5
:102E30003068032101FA09F1884307FA09F10843D0
:102E4000306000BFBDE8F0872E2E5C2E2E5C315F17
:102E50006C69625C646576696365735C4D494D5865
:102E60005254313035325C647269766572735C66D7
:102E7000736C5F636C6F636B2E680000696E6465D2
:102E800078203C3D2036000068C00F400146C8B2A3
:102E9000054A8058C1F34C32C1F304239A401040D4
:102EA000C1F30422D040704700C00F4004480068BE
:102EB00000F0100008B10348704703480068FBE7C2
:102EC00070820D4000366E01440000202DE9FF475E
:102ED0008146834BD3E90020D3E9021301AC0BC434
:102EE000009280494846C0F30B428A5800F01F0701
:102EF0000123BB401A400AB1012200E000221AB9A6
:102F0000002004B0BDE8F087764FC846C8F30B40F8
:102F10003858C0F3813010B9FFF7C8FF00E0002037
:102F200004467048C9F30B414158C1F3004109B14F
:102F30002046E6E76C49A9EB0100894545D00DDC48
:102F4000B9F10D0F16D0A9F580100D3890B3B0F57A
:102F5000801F70D0B0F5001F6ED112E0B0F5401F99
:102F60006DD0B0F5E00F69D0A0F5E000083800287A
:102F7000F2D1A3E05B48006800F07F0060434408A2
:102F8000AAE05848D0F860C0006DA4FB007162460A
:102F900000233846FFF71CFB05465248006B00F043
:102FA000010010B11620444302E004EB84008400C9
:102FB0002C4491E0FFE74B48006900F0020008B1A3
:102FC000162000E01420444386E04648006F00F0DD
:102FD0007F0A44489030D0F800C04248D0F88000C2
:102FE000A4FB00700146624600233846FFF7F0FA62
:102FF000054604FB0A543B48006F00F4C01018B1AA
:10300000B0F5002F04D101E0A40802E0640800E05C
:1030100000BF00BF3548006835490840B0F5004F93
:1030200004D04942084418B9A40802E0640800E04A
:1030300000BF00BF50E043E04CE000E036E029482C
:10304000A030006800F07F0A2648D0F8C0C0B03039
:103050000068A4FB00700146624600233846FFF773
:10306000B7FA054604FB0A541E48D0F8A00000F445
:10307000C01018B1B0F5002F04D101E0A40802E09F
:10308000640800E000BF00BF1848006800F040403E
:10309000B0F1404F03D0B0F1804F04D101E0A4085B
:1030A00002E0640800E000BF00BF15E00F48903860
:1030B000006800F0030A5DF82A400DE00D4C0BE0BB
:1030C0000848006A00F0020008B1162000E0142051
:1030D000444301E0002400BF00BF204611E7000088
:1030E000BC46006000800D400D00700070810D40F6
:1030F0000080800040787D011449096821F4404136
:1031000041F4803102794FF4404303EA82321143A3
:103110000E4A11601146096841F27F02914341F461
:103120000051027802F07F021143084A116000BF8B
:103130000649096801F000410029F9D003490968EE
:1031400021F48031014A11607047000000800D4079
:103150001449096B21F4404141F48031027B4FF462
:10316000404303EA823211430E4A11631146096B50
:1031700041F20102914341F40051027802F0010250
:103180001143084A116300BF0649096B01F0004171
:103190000029F9D00349096B21F48031014A1163F8
:1031A0007047000000800D4070B504460E463F2079
:1031B00000EA9465E0B215494158C4F34C30C4F3B9
:1031C0000422904021EA0000C4F3042206FA02F12E
:1031D000C4F34C32C4F304239A4011400843E1B2D3
:1031E0000A4A8850202D00D805E040F2B53208A1E7
:1031F00014A001F0ABF9202D07D000BF0348806C6C
:103200000121A94008400028F8D170BD00C00F403E
:103210002E2E5C2E2E5C315F6C69625C6465766973
:103220006365735C4D494D585254313035325C649E
:103230007269766572735C66736C5F636C6F636BE7
:103240002E680000627573795368696674203C3D8E
:103250002043434D5F4E4F5F425553595F5741499D
:103260005400000070B504460E463F2000EA946505
:10327000E0B215494158C4F34C30C4F304229040E5
:1032800021EA0000C4F3042206FA02F1C4F34C322E
:10329000C4F304239A4011400843E1B20A4A88501B
:1032A000202D00D805E04FF4647208A114A001F0AD
:1032B0004DF9202D07D000BF0348806C0121A940A3
:1032C00008400028F8D170BD00C00F402E2E5C2EA3
:1032D0002E5C315F6C69625C646576696365735C02
:1032E0004D494D585254313035325C6472697665BF
:1032F00072735C66736C5F636C6F636B2E68000047
:10330000627573795368696674203C3D2043434D70
:103310005F4E4F5F425553595F574149540000007B
:103320002DE9F04F07468C469146002039468346EA
:1033300001F801BBB9F1000F1ED0DCF8004034B930
:103340004FF0300B81F800B0401CBDE8F08F10E06A
:1033500094FBF3F808FB1345002D05DA2A466FEAC3
:10336000020B0BF1310500E03035444601F8015BFA
:10337000401C002CECD125E0DCF800602EB94FF0A9
:10338000300B81F800B0401CDFE719E0B6FBF3FA20
:103390000AFB13620A2A01D230320DE0A2F10A0BB5
:1033A000DDF824E0BEF1000F02D04FF0410E01E045
:1033B0004FF0610E0BEB0E02564601F8012B401C3C
:1033C000002EE3D100BFC0E72DE9F04106460D46CF
:1033D00014461F4604B104E0692206A115A001F0BD
:1033E000B5F83B462A462146304600F00BFABDE8C8
:1033F000F08100002E2E5C2E2E5C315F6C69625CC9
:10340000646576696365735C4D494D58525431303B
:1034100035325C7574696C69746965735C66736C6C
:103420005F64656275675F636F6E736F6C652E6353
:103430000000000064657669636520213D204445F5
:103440004255475F434F4E534F4C455F44455649A5
:1034500043455F545950455F4E4F4E4500000000B4
:103460000FB430B5A1B00024002580216846FFF7D5
:10347000E7F825A82090094B6A462099249800F087
:10348000E5FE04462146684600F0E0F905460020C6
:103490002090284621B030BC5DF814FBA1340060B8
:1034A0002DE9F04105460C4616461F464FF0000830
:1034B00000BF10E02068401C802805D32846216802
:1034C00000F0C4F90020206020682E542068401CC1
:1034D000206008F10108B845ECDBBDE8F081000090
:1034E00070B50546002406E0094850F82400A842BB
:1034F00000D102E0641C062CF6D300BF062C00D2DB
:1035000004E0542203A110A001F020F8204670BD71
:10351000CC4600602E2E5C2E2E5C315F6C69625CA6
:10352000646576696365735C4D494D58525431301A
:1035300035325C647269766572735C66736C5F6762
:1035400070696F2E63000000696E7374616E63654D
:10355000203C2041525241595F53495A4528735FDC
:103560006770696F42617365732900002DE9F0414E
:1035700004460D4616462046FFF7B2FF124931F9C0
:1035800010703846FFF7FAFB60690121A9408843B3
:103590006061307828B960680121A9408843606083
:1035A00009E072782946204600F056F8616801204B
:1035B000A84001436160B7783A462946204600F0AA
:1035C00005F800BFBDE8F081E4460060F0B50346B1
:1035D0000C462146DD690126A640B543DD61102C6D
:1035E00002D203F10C0002E003F110001039062AA8
:1035F0002ED2DFE802F02D030A15202705684F00C0
:103600000326BE40B543056023E005684F0003264E
:10361000BE40B5434F000126BE403543056018E06B
:1036200005684F000326BE40B5434F000226BE404A
:10363000354305600DE005684F000326BE40354365
:10364000056006E0DD690126A6403543DD6100E046
:1036500000BF00BFF0BD000070B504460D46164621
:10366000202D00D204E0742208A115A000F06EFF06
:103670002EB920680121A9408843206004E0216818
:103680000120A8400143216070BD00002E2E5C2E59
:103690002E5C315F6C69625C646576696365735C3E
:1036A0004D494D585254313035325C6472697665FB
:1036B00072735C66736C5F6770696F2E63000000E5
:1036C00070696E203C2033320000000030B5DDE927
:1036D000034504B1256030BDF0B5DDE9055401F0C6
:1036E0000706102707EA04173E43066002B113607D
:1036F000F0BD0000F0B585B004460D4616461F46E5
:1037000004B104E0FF221CA129A000F01FFF2079D2
:103710002A4908712068086008460079022826D1E5
:10372000684600F061F90095244932460868694608
:1037300000F0E6F9214A0121106821B1826942F4C2
:103740000022826103E0826922F40022826100BFCC
:103750001A4A0121106821B1826942F480228261F3
:1037600003E0826922F48022826100BF00E000BF92
:1037700000BF05B0F0BD00002E2E5C2E2E5C315F28
:103780006C69625C646576696365735C4D494D582C
:103790005254313035325C7574696C697469657383
:1037A0005C696F5C66736C5F696F2E63000000007C
:1037B0004E554C4C20213D20696F000054000020E4
:1037C0002DE9F04104460D46164600270C480079C5
:1037D00002280FD136B10A492A460868214600F06E
:1037E00093FB06E006492A460868214600F008FBDC
:1037F000074601E0012700BF00BF3846BDE8F08161
:10380000540000202DE9FC4107460C4615461E4693
:1038100000978DF804400023324629466846FFF79A
:1038200069FF0020BDE8FC8170B505460C46002606
:103830004CB145B1012636B1012221462846FFF799
:10384000BFFF00B10024204670BD000070B50446E3
:103850000D4604B105E040F23F1204A111A000F0B2
:1038600075FE29462046FFF7DFFF70BD2E2E5C2E29
:103870002E5C315F6C69625C646576696365735C5C
:103880004D494D585254313035325C7574696C690C
:10389000746965735C6C6F675C66736C5F6C6F6793
:1038A0002E63000062756620213D204E554C4C0071
:1038B00010B5034841680348034A1268904710BD99
:1038C00060000020004018404C00002010B5034864
:1038D00081680348034A1268904710BD60000020C9
:1038E000008018404C00002010B50348C168034810
:1038F000034A1268904710BD6000002000C01840C5
:103900004C00002010B5034801690348034A1268BF
:10391000904710BD60000020000019404C000020BE
:1039200010B5034841690348034A1268904710BD27
:1039300060000020004019404C00002010B50348F2
:1039400081690348034A1268904710BD6000002057
:10395000008019404C00002010B50348C16903489D
:10396000034A1268904710BD6000002000C0194053
:103970004C00002010B50348016A0348034A12684E
:10398000904710BD6000002000001A404C0000204D
:1039900070B505460C46AB6A23F440334FF4403013
:1039A00000EA04400343AB626B6923F0004304F078
:1039B000004003430B480340C14304EA01000343B2
:1039C00023F4404304F4404003436B61284600F075
:1039D0008FF8204010B140F21A5600E00026304621
:1039E00070BD0000FFFFE0BF10B5044604B105E064
:1039F0004FF4F1720BA118A000F0A8FD4FF4E130D4
:103A00002060002020716071A071E07120726072EE
:103A1000A072E07260732073A073E073207460740E
:103A200010BD00002E2E5C2E2E5C315F6C69625C36
:103A3000646576696365735C4D494D585254313005
:103A400035325C647269766572735C66736C5F6C48
:103A500070756172742E6300636F6E666967000033
:103A600070B50546002406E0094850F82400A84235
:103A700000D102E0641C092CF6D300BF092C00D24F
:103A800004E08E2203A110A000F060FD204670BD6E
:103A9000F04600602E2E5C2E2E5C315F6C69625CFD
:103AA000646576696365735C4D494D585254313095
:103AB00035325C647269766572735C66736C5F6CD8
:103AC00070756172742E6300696E7374616E6365E4
:103AD000203C2041525241595F53495A4528735F57
:103AE0006C70756172744261736573290000000027
:103AF000014648698A6A02F4430240EA124070476C
:103B00002DE9F04F85B004460D46914605B104E01D
:103B1000E42284A190A000F019FD286800B104E01F
:103B2000E52280A18EA000F011FD287A042800DC97
:103B300004E0E7227BA190A000F008FD687A042849
:103B400000DC04E0E82277A19BA000F0FFFC2868DD
:103B500002904FF0000A00200490042731E028680A
:103B60007843B9FBF0F01FFA80F8B8F1000F01D1EB
:103B70004FF0010807FB08F0B9FBF0F0039029684B
:103B80000398A0EB010B08F101007843B9FBF0F0BA
:103B90002968081A58450BD208F101007843B9FB8F
:103BA000F0F02968A1EB000B08F101001FFA80F882
:103BB0000298834504D8CDF808B0BA46CDF81080F5
:103BC0007F1C202FCBD964212868B0FBF1F000EBDB
:103BD00040010298814204D240F2215005B0BDE874
:103BE000F08F2046FFF73CFF01908349019831F99F
:103BF0001000009003210098FFF73CF800BF00BFC1
:103C0000A06840F00200A060A06820F00200A06060
:103C100000BF2669BAF1030F04D9BAF1080F01D227
:103C200046F4003626F0F856AAF101004FF0F8519C
:103C300001EA006006436FF30C060498C0F30C0021
:103C400030432061206920F000502061A06940F2DB
:103C5000177120EA01062879E97B4FF4E06202EA55
:103C600001210843A97B042202EA8101084306439B
:103C70006879012807D1287910B126F4006606E09A
:103C800046F4006603E0287908B146F01006A66104
:103C9000206920F40056E8794FF4005101EA4030E1
:103CA00030432061287A697A40EA0140E062A06AE4
:103CB00040F08800A062A06A40F44040A0624F4EED
:103CC00046F0004646F44046687B102101EA0010A9
:103CD000297B202202EA41110843616A084360629D
:103CE000A87A18B1606A40F008006062E87A18B1FA
:103CF000606A40F001006062A87910B146F0005699
:103D000001E026F00056606930436061A669287CB6
:103D100008B146F40026687C08B146F48026A66106
:103D200000205BE72E2E5C2E2E5C315F6C69625C9E
:103D3000646576696365735C4D494D585254313002
:103D400035325C647269766572735C66736C5F6C45
:103D500070756172742E6300636F6E666967000030
:103D6000636F6E6669672D3E62617564526174654A
:103D70005F4270730000000046534C5F464541545B
:103D80005552455F4C50554152545F4649464F5F2E
:103D900053495A456E286261736529203E3D206370
:103DA0006F6E6669672D3E74784669666F576174F9
:103DB00065726D61726B000046534C5F464541541D
:103DC0005552455F4C50554152545F4649464F5FEE
:103DD00053495A456E286261736529203E3D206330
:103DE0006F6E6669672D3E72784669666F576174BB
:103DF00065726D61726B00002647006000001F4015
:103E00002DE9F04706460C46904604B105E04FF414
:103E10002E722EA13AA000F099FBB76907F400605A
:103E200028B907F0100020B907F0020008B10120FE
:103E300000E00020814642E030E03046FFF758FEC7
:103E4000054605F4002040B14FF400213046FFF74D
:103E50009FFD40F21D50BDE8F08705F4802038B189
:103E60004FF480213046FFF793FD40F21E50F2E7F9
:103E700005F4003038B14FF400313046FFF788FDCB
:103E800040F21F50E7E705F4803038B14FF480313D
:103E90003046FFF77DFD4FF4A460DCE7F06AC0F325
:103EA00002600028C9D0B9F1000F05D0F06900F018
:103EB0007F0004F8010B02E0F06904F8010BB8F18F
:103EC0000000A8F10108B7D100BFC4E72E2E5C2E78
:103ED0002E5C315F6C69625C646576696365735CF6
:103EE0004D494D585254313035325C6472697665B3
:103EF00072735C66736C5F6C70756172742E6300B4
:103F0000646174610000000070B505460C461646F9
:103F100004B105E040F2A92209A116A000F016FBA9
:103F200008E000BF686900F400000028FAD014F827
:103F3000010BE861301EA6F10106F2D170BD000050
:103F40002E2E5C2E2E5C315F6C69625C6465766936
:103F50006365735C4D494D585254313035325C6461
:103F60007269766572735C66736C5F6C7075617292
:103F7000742E6300646174610000000010B50023BA
:103F8000244C236000BF00BF00BFBFF34F8F00BFB2
:103F900000BF00BF1F4B703B1B6823F480331D4CD8
:103FA000703C236000BF00BF00BFBFF34F8F00BF56
:103FB00000BF00BF174B1B1F1868C0F34E3100BF76
:103FC000C0F3C90200BF43F6E07303EA41134FF0A8
:103FD000404404EA827423430F4C236000BF00BFB7
:103FE000131EA2F10102EED10B1EA1F10101E7D1D6
:103FF00000BF00BF00BFBFF34F8F00BF00BF00BFB7
:1040000000BF00BF00BFBFF36F8F00BF00BF00BF86
:1040100010BD000084ED00E074EF00E010B5002357
:10402000234C236000BF00BF00BFBFF34F8F00BF12
:1040300000BF00BF231F1868C0F34E3100BFC0F39C
:10404000C90200BF43F6E07303EA41134FF0404456
:1040500004EA82742343174C236000BF00BF131E81
:10406000A2F10102EED10B1EA1F10101E7D100BFC7
:1040700000BF00BFBFF34F8F00BF00BF00BF0C4B9E
:10408000703B1B6843F48033094C703C236000BFD5
:1040900000BF00BFBFF34F8F00BF00BF00BF00BF16
:1040A00000BF00BFBFF36F8F00BF00BF00BF10BDD8
:1040B00084ED00E060EF00E010B50023234C2360A6
:1040C00000BF00BF00BFBFF34F8F00BF00BF00BFE6
:1040D000231F1868C0F34E3100BFC0F3C90200BFF0
:1040E00043F6E07303EA41134FF0404404EA82745C
:1040F0002343174C236000BF00BF131EA2F101022F
:10410000EED10B1EA1F10101E7D100BF00BF00BF3E
:10411000BFF34F8F00BF00BF00BF0C4B703B1B684D
:1041200043F48033094C703C236000BF00BF00BFE4
:10413000BFF34F8F00BF00BF00BF00BF00BF00BF75
:10414000BFF36F8F00BF00BF00BF10BD84ED00E064
:1041500060EF00E000BF00BF00BFBFF34F8F00BFA4
:1041600000BF00BF00BF00BF00BFBFF36F8F00BF25
:1041700000BF00BF00201449086000BF00BF00BF9F
:10418000BFF34F8F00BF00BF00BF00BF00BF00BF25
:10419000BFF36F8F00BF00BF00BF0C48006840F442
:1041A00000300A49086000BF00BF00BFBFF34F8F57
:1041B00000BF00BF00BF00BF00BF00BFBFF36F8FD5
:1041C00000BF00BF00BF704750EF00E014ED00E0FB
:1041D00000BF00BF00BFBFF34F8F00BF00BF00BFD5
:1041E00000BF00BF00BFBFF36F8F00BF00BF00BFA5
:1041F00000201449086000BF00BF00BFBFF34F8F0D
:1042000000BF00BF00BF00BF00BF00BFBFF36F8F84
:1042100000BF00BF00BF0C48006840F400300A49EE
:10422000086000BF00BF00BFBFF34F8F00BF00BFDB
:1042300000BF00BF00BF00BFBFF36F8F00BF00BF54
:1042400000BF704750EF00E014ED00E02DE9FF4F94
:1042500091B01E464FF00009002700200690039001
:104260000190119D01E1252C05D0E2B2012306A9A0
:104270001398B047F8E0012004904FF0000A0020A6
:10428000079010E0681C05460478302C08DB392CB8
:1042900006DCA4F130000AEB8A0100EB410A02E0DF
:1042A0006D1E0120079007980028EBD0062005908E
:1042B000681C054600782E281AD10020059007902A
:1042C00012E0681C05460478302C0ADB392C08DC27
:1042D000A4F13000059901EB810100EB410005904C
:1042E00002E06D1E0120079007980028E9D000E049
:1042F0006D1E681C05460478642C11D0692C0FD003
:10430000662C0DD0462C0BD0782C09D0582C07D019
:104310006F2C05D0622C03D0702C01D0752C70D17D
:10432000642C01D0692C11D1129800680290129867
:10433000001D129004980A23012202A9009008A8E7
:10434000FEF7EEFF074608A800EB0709582C01D03E
:10435000782C15D1782C01D1002004901298006897
:1043600001901298001D129004981023002201A9B8
:10437000009008A8FEF7D4FF074608A800EB07093D
:104380006F2C05D0622C03D0702C01D0752C22D15B
:104390001298006801901298001D12906F2C02D1A3
:1043A000082003900BE0622C02D10220039006E06B
:1043B000702C02D11020039001E00A200390049891
:1043C0000090002201A908A8039BFEF7A9FF074659
:1043D00008A800EB0709AAEB0703202206A91398F7
:1043E000B047B9F1000F3ED005E019F801290123CB
:1043F00006A91398B04799F800000028F5D132E0DB
:10440000FFE7632C0BD1129810F8041B01F0FF0B8F
:1044100012905A46012306A91398B04723E0732C43
:104420001CD1129850F8048B1290B8F1000F1AD0DA
:104430004046FEF710F90746AAEB0703202206A91B
:104440001398B04705E018F8012B012306A913982B
:10445000B04798F800000028F5D104E0E2B201234B
:1044600006A91398B04700BF6D1C2878041E7FF47E
:10447000FAAE069815B0BDE8F08F000010B52D48D3
:10448000006840F470002B4908602B48008920F038
:104490000100294908812948008920F001002749A5
:1044A00008812548008800F0040028B122480088CF
:1044B00020F00400204908802048008800F0040013
:1044C00028B11E48008820F004001C4908801C48C0
:1044D0001C4948604FF6FF7088600846006820F06D
:1044E000800040F0200008604FF0E020006900F0FC
:1044F000010038B14FF0E020006920F001004FF0DA
:10450000E02108610B487438006800F40030B0F511
:10451000003F01D0FFF75CFE06487438006800F4E5
:104520008030B0F5803F01D0FFF7C6FD00F00CF8F9
:1045300010BD000088ED00E000800B4000000D4041
:1045400020C528D900C00B407047000004460D4626
:10455000164633462A46214602A0FEF781FF00BFD9
:1045600000BEFDE7415353455254204552524F522D
:10457000202220257320223A2066696C652022259E
:104580007322204C696E652022256422200A0000D7
:1045900002E008C8121F08C1002AFAD1704770470C
:1045A000002001E001C1121F002AFBD1704700006A
:1045B00038B510480068009040F20240FEF722FC37
:1045C000052000210A460B46102404EA0314044384
:1045D000094D2C6001B10A6000BF084841F2B001EA
:1045E00000B1016000BF6A4613210548FEF7BEFF17
:1045F00038BD00003847006008811F40F8821F4026
:1046000000801B4030B585B004466846FFF7ECF9E2
:10461000009401208DF810008DF81100FEF7A8FA23
:1046200005462A4669460248FFF76AFA05B030BDDA
:104630000040184008B5FEF7C1F9FEF7E3FAFEF7AF
:1046400043F8FEF7D1FA4FF4167000F01BF8FFF7AD
:10465000AFFF4FF4E130FFF7D5FF4222074908488A
:10466000FFF752FC09E0012269460548FFF7C8FB45
:10467000012269460248FFF747FCF4E700000020EA
:10468000004018404FF0E021096941F006014FF069
:10469000E022116101490860704700005C000020C1
:1046A00064000000000000000100000000000000A5
:1046B00001000000000000000000000040787D01C3
:1046C00080F0FA0200E1F505405973070000000090
:1046D00000801B4000C01B4000001C4000401C40EC
:1046E00000000C40FFFF1A011E001A020C031E01FD
:1046F00000000000004018400080184000C0184032
:1047000000001940004019400080194000C01940C5
:1047100000001A4080FF1400150016001700180052
:1047200019001A001B00FFFF18051C000C001801DF
:10473000020306031A050E06010000005C47006034
:10474000000000206000000090450060BC47006051
:104750006000002024000000A04500604C707561DE
:10476000727420706F6C6C696E67206578616D7013
:104770006C650D0A426F6172642077696C6C2073FE
:10478000656E64206261636B20726563656976653E
:104790006420636861726163746572730D0A00005E
:1047A00000000000000000000000000000A4781FCE
:0C47B000000000000000000000000000FD
:040000056000240172
:00000001FF
